:020000040800F2
:1000000000000220AD290008A5280008AB28000840
:10001000B1280008B7280008BD280008000000002B
:10002000000000000000000000000000B1640008B3
:10003000C32800080000000001670008795D00087F
:10004000FD290008FD290008FD290008FD290008F8
:10005000FD290008FD290008FD290008FD290008E8
:10006000FD290008FD290008FD290008FD290008D8
:10007000FD290008FD290008FD290008FD290008C8
:10008000FD290008D1280008FD2900080000000013
:10009000000000000000000000000000FD29000832
:1000A000E5280008FD290008FD290008FD290008B1
:1000B000FD290008FD290008FD290008FD29000888
:1000C000FD290008FD290008FD290008FD29000878
:1000D000FD290008FD290008FD2900080000000096
:1000E000F9280008FD290008FD290008000000008B
:1000F000000000000000000000000000FD290008D2
:1001000000000000FD290008FD290008FD29000865
:1001100000000000000000000000000000000000DF
:1001200009290008FD290008FD290008FD2900080B
:10013000FD29000800000000000000000000000091
:10014000000000000000000000000000FD29000881
:10015000FD290008FD290008FD290008FD290008E7
:10016000FD290008FD290008000000000000000033
:10017000000000000000000000000000000000007F
:1001800000000000FD290008000000000000000041
:08019000FD290008FD2900080B
:1001A00010B5054C237833B9044B13B10448AFF3B1
:1001B00000800123237010BD040100200000000016
:1001C00058F1000808B5034B1BB103490348AFF3CE
:1001D000008008BD000000000801002058F1000860
:1001E0004B1C012B98BF70472DE9F003911C9B0815
:1001F000B1F80480B1F802900A8831F802CC80444A
:10020000814402448444D9F80070D8F8006015682D
:10021000DCF80040C9F80060C8F80070CCF8005065
:100220001460D9F80470D8F804605568DCF804400C
:10023000C9F80460C8F80470CCF804505460083160
:10024000013BD5D1BDE8F00370474B1C012B98BF93
:1002500070472DE9F003911C9B08B1F80480B1F8B8
:1002600002900A8831F802CC00EB580800EB5909DB
:1002700000EB520200EB5C0CD9F80070D8F800607B
:100280001568DCF80040C9F80060C8F80070CCF8C8
:10029000005014600831013BDFD1BDE8F003704726
:1002A00070B54FF0FF0C4CF4E06C1CEA11541DBF0C
:1002B0001CEA135594EA0C0F95EA0C0F00F0DEF8D7
:1002C0002C4481EA030621EA4C5123EA4C5350EABC
:1002D000013518BF52EA033541F4801143F480130D
:1002E00038D0A0FB02CE4FF00005E1FB02E506F09E
:1002F0000042E0FB03E54FF00006E1FB03569CF0F3
:10030000000F18BF4EF0010EA4F1FF04B6F5007FF8
:1003100064F5407404D25FEA4E0E6D4146EB06066A
:1003200042EAC62141EA55514FEAC52040EA5E50F3
:100330004FEACE2EB4F1FD0C88BFBCF5E06F1ED89D
:10034000BEF1004F08BF5FEA500E50F1000041EBD4
:10035000045170BD06F0004646EA010140EA020081
:1003600081EA0301B4EB5C04C2BFD4EB0C0541EAA3
:10037000045170BD41F480114FF0000E013C00F3B8
:10038000AB8014F1360FDEBF002001F0004170BDDC
:10039000C4F10004203C35DA0C341BDC04F11404F5
:1003A000C4F1200500FA05F320FA04F001FA05F281
:1003B00040EA020001F0004221F0004110EBD3704E
:1003C00021FA04F642EB06015EEA430E08BF20EA7A
:1003D000D37070BDC4F10C04C4F1200500FA04F31D
:1003E00020FA05F001FA04F240EA020001F00041AF
:1003F00010EBD37041F100015EEA430E08BF20EA22
:10040000D37070BDC4F1200500FA05F24EEA020E69
:1004100020FA04F301FA05F243EA020321FA04F098
:1004200001F0004121FA04F220EA020000EBD3704F
:100430005EEA430E08BF20EAD37070BD94F0000F4F
:100440000FD101F00046400041EB010111F4801F83
:1004500008BF013CF7D041EA060195F0000F18BF34
:10046000704703F00046520043EB030313F4801F70
:1004700008BF013DF7D043EA0603704794EA0C0F2A
:100480000CEA135518BF95EA0C0F0CD050EA410640
:1004900018BF52EA4306D1D181EA030101F00041BD
:1004A0004FF0000070BD50EA410606BF10461946E5
:1004B00052EA430619D094EA0C0F02D150EA0136F1
:1004C00013D195EA0C0F05D152EA03361CBF104632
:1004D00019460AD181EA030101F0004141F0FE41D1
:1004E00041F470014FF0000070BD41F0FE4141F455
:1004F000780170BD81F0004102E000BF83F000434D
:1005000030B54FEA41044FEA430594EA050F08BFAE
:1005100090EA020F1FBF54EA000C55EA020C7FEA72
:10052000645C7FEA655C00F0E2804FEA5454D4EBEF
:100530005555B8BF6D420CDD2C4480EA020281EAB9
:10054000030382EA000083EA010180EA020281EAF1
:100550000303362D88BF30BD11F0004F4FEA013143
:100560004FF4801C4CEA113102D0404261EB410152
:1005700013F0004F4FEA03334CEA133302D05242D8
:1005800063EB430394EA050F00F0A780A4F1010494
:10059000D5F1200E0DDB02FA0EFC22FA05F28018CE
:1005A00041F1000103FA0EF2801843FA05F35941B4
:1005B0000EE0A5F120050EF1200E012A03FA0EFC33
:1005C00028BF4CF0020C43FA05F3C01851EBE3715D
:1005D00001F0004507D54FF0000EDCF1000C7EEB7A
:1005E00000006EEB0101B1F5801F1BD3B1F5001FB8
:1005F0000CD349085FEA30004FEA3C0C04F10104D7
:100600004FEA445212F5800F80F09A80BCF1004FFF
:1006100008BF5FEA500C50F1000041EB045141EA81
:10062000050130BD5FEA4C0C404141EB0101013C4A
:1006300028BFB1F5801FE9D291F0000F04BF014639
:100640000020B1FA81F308BF2033A3F10B03B3F10B
:1006500020020CDA0C3208DD02F1140CC2F10C029B
:1006600001FA0CF021FA02F10CE002F11402D8BFF9
:10067000C2F1200C01FA02F120FA0CFCDCBF41EAC5
:100680000C019040E41AA2BF01EB0451294330BD94
:100690006FEA04041F3C1CDA0C340EDC04F1140471
:1006A000C4F1200220FA04F001FA02F340EA030048
:1006B00021FA04F345EA030130BDC4F10C04C4F18E
:1006C000200220FA02F001FA04F340EA030029466E
:1006D00030BD21FA04F0294630BD94F0000F83F4B8
:1006E000801306BF81F480110134013D4EE77FEA9B
:1006F000645C18BF7FEA655C29D094EA050F08BFE7
:1007000090EA020F05D054EA000C04BF19461046C7
:1007100030BD91EA030F1EBF0021002030BD5FEA0B
:10072000545C05D14000494128BF41F0004130BD33
:1007300014F580043CBF01F5801130BD01F0004587
:1007400045F0FE4141F470014FF0000030BD7FEAFA
:10075000645C1ABF194610467FEA655C1CBF0B46F5
:10076000024650EA013406BF52EA033591EA030F0C
:1007700041F4002130BD00BF90F0000F04BF002104
:10078000704730B54FF4806404F132044FF0000537
:100790004FF0000150E700BF90F0000F04BF0021B0
:1007A000704730B54FF4806404F1320410F0004516
:1007B00048BF40424FF000013EE700BF42004FEA11
:1007C000E2014FEA31014FEA02701FBF12F07F438E
:1007D00093F07F4F81F06051704732F07F4208BF45
:1007E000704793F07F4F04BF41F40021704730B54C
:1007F0004FF4607401F0004521F000411CE700BF98
:1008000050EA010208BF704730B54FF000050AE01A
:1008100050EA010208BF704730B511F0004502D51B
:10082000404261EB41014FF4806404F132045FEA1D
:10083000915C3FF4D8AE4FF003025FEADC0C18BFC6
:1008400003325FEADC0C18BF033202EBDC02C2F1B8
:10085000200300FA03FC20FA02F001FA03FE40EA4A
:100860000E0021FA02F11444BDE600BF4A0011D285
:1008700012F5001211D20DD56FF47873B3EB6252FA
:100880000ED44FEAC12343F0004343EA505323FA06
:1008900002F070474FF00000704750EA013002D17B
:1008A0004FF0FF3070474FF00000704753B94AB91E
:1008B000002908BF00281CBF4FF0FF314FF0FF3068
:1008C00000F06AB9ADF1080C6DE904CE00F006F84D
:1008D000DDF804E0DDE9022304B070472DE9F047BC
:1008E000089D0C46002B4ED194468C458646B2FAA4
:1008F00082F262D94AB1C2F12003914020FA03F397
:100900000CFA02FC194300FA02FE4FEA1C471FFAD8
:100910008CF6B1FBF7F44FEA1E4307FB141143EAD0
:10092000014304FB06F199420AD91CEB030304F1CD
:10093000FF3080F01281994240F20F81023C634403
:10094000591A1FFA8EF3B1FBF7F007FB101143EAB7
:10095000014300FB06F69E420AD91CEB030300F19B
:10096000FF3180F0FC809E4240F2F98063440238FF
:100970009B1B40EA044000211DB1D3400022C5E981
:100980000032BDE8F0878B4205D90DB1C5E9000101
:1009900000210846F5E7B3FA83F1002946D1A342C6
:1009A00002D39042C0F0F080861A64EB030301206A
:1009B000002DE6D0C5E90063E3E7002A40F090800F
:1009C000A1EB0C044FEA1C481FFA8CF70121B4FB81
:1009D000F8F64FEA1E4308FB164443EA044307FBBC
:1009E00006F0984208D91CEB030306F1FF3402D24B
:1009F000984200F2CD8026461C1A1FFA8EF3B4FBF3
:100A0000F8F008FB104443EA044300FB07F79F4259
:100A100008D91CEB030300F1FF3402D29F4200F21D
:100A2000B0802046DB1B40EA0640A5E7C1F1200666
:100A30008B4022FA06F71F4320FA06FC04FA01F362
:100A400043EA0C03F44000FA01F8380C4FEA13496A
:100A5000B4FBF0FE1FFA87FC00FB1E4449EA044485
:100A60000EFB0CF9A14502FA01F20AD93C190EF16C
:100A7000FF3A80F08480A14540F28180AEF1020E01
:100A80003C44A4EB09041FFA83F9B4FBF0F300FB28
:100A9000134449EA044403FB0CFCA44507D93C1960
:100AA00003F1FF3067D2A44565D9023B3C4443EAD9
:100AB0000E40A0FB0293A4EB0C049C42CE469C4645
:100AC00051D34ED055B1B8EB0E0364EB0C0404FACD
:100AD00006F6CB401E43CC40C5E90064002150E738
:100AE000C2F1200320FA03F10CFA02FC24FA03F30A
:100AF00094400C434FEA1C4800FA02FE1FFA8CF7A0
:100B0000B3FBF8F008FB1031230C43EA014300FB70
:100B100007F1994208D91CEB030300F1FF362CD2F0
:100B200099422AD9023863445B1AA4B2B3FBF8F1A4
:100B300008FB113344EA034401FB07F3A34208D93D
:100B40001CEB040401F1FF3613D2A34211D9023980
:100B50006444E41A41EA004139E70446F0E60846F5
:100B600006E7C845AED2B9EB020E63EB070C0138BD
:100B7000A8E73146EDE7034699E73046D4E7D64685
:100B80007FE7634402384DE70646234608460FE7F1
:100B9000023E634430E700BF704700BF0000000022
:100BA00001F0FF01102A2BDB10F0070F08D010F81E
:100BB000013B013A8B422DD010F0070F42B3F6D122
:100BC000F0B441EA012141EA014122F007047FF03B
:100BD00000070023F0E80256083C85EA010586EA92
:100BE000010685FA47F5A3FA87F586FA47F6A5FACE
:100BF00087F68EB9EED1F0BC01F0FF0102F00702DA
:100C000032B110F8013B013A83EA010313B1F8D184
:100C10000020704701387047002D06BF3546033865
:100C2000073815F0010F07D1013015F4807F02BF9E
:100C3000013015F4C03F0130F0BC0138704700BFEF
:100C400080B500AF00220121024809F065FD00BF18
:100C500080BD00BF0004024080B500AF0122012129
:100C6000024809F059FD00BF80BD00BF00040240EA
:100C700080B582B000AF0346FB7100BF08480BF09F
:100C8000FAF90346012BF9D1F91D4FF47A730122C9
:100C900003480AF012FF00BF0837BD4680BD00BF01
:100CA0002002002080B584B002AFFF23FB71002337
:100CB000BB7100BF09480BF0DEF90346012BF9D1E7
:100CC000BA1DF91D4FF47A730093012303480BF00A
:100CD00030F8BB7918460837BD4680BD2002002099
:100CE00080B582B000AF7860FFF7DCFF03461A469C
:100CF0007B681A7000BF0837BD4680BD80B582B0E2
:100D000000AF0B4B32221A70FFF7CCFFFFF7CAFF80
:100D10000346FB71FB79FF2B04D0054B1B78DBB23C
:100D2000002BF3D1FB7918460837BD4680BD00BFC4
:100D3000D55C002080B586B000AF41F6FF737B61C3
:100D4000FFF78AFF00233B6105E0FF20FFF790FFDC
:100D50003B6901333B613B69092BF6DDFFF770FF0F
:100D600040233B7100237B710023BB710023FB7187
:100D700000233B7295237B720023FB6009E03A1D40
:100D8000FB6813441B781846FFF772FFFB680133BA
:100D9000FB60FB68052BF2DD02E07B69013B7B61B8
:100DA000FFF780FF0346012B02D07B69002BF4D1B3
:100DB000FFF752FFFF20FFF75BFF034B01221A7082
:100DC00000BF1837BD4680BD2101002080B400AFB0
:100DD000034B00221A7000BFBD465DF8047B7047CC
:100DE0002101002080B400AF034B1B781846BD469C
:100DF0005DF8047B704700BF2101002080B584B0FE
:100E000000AF78603960174B0A221A70FFF74AFF6B
:100E10000346FB73FB7BFF2B04D1124B1B78DBB229
:100E2000002BF3D1FB7BFE2B01D0002316E07B6867
:100E30005A1C7A601846FFF753FF7B685A1C7A6089
:100E40001846FFF74DFF3B68023B3B603B68002BB9
:100E5000EDD1FFF727FFFFF725FF012318461037D5
:100E6000BD4680BDD45C002080B584B000AF786002
:100E70000B46FB7000237B73FFF740FF0346FF2BFD
:100E800001D0002340E0FB781846FFF7F1FEFB7825
:100E9000FD2B31D00023BB737B685A1C7A601B7812
:100EA0001846FFF7E5FE7B685A1C7A601B781846E7
:100EB000FFF7DEFEBB7B013BBB73BB7B002BEBD1A3
:100EC000FFF7F0FEFFF7EEFE0BE0FFF7EBFE034649
:100ED000FB73FB7B03F01F03052B06D07B7B0133E9
:100EE0007B737B7B402BF0D900E000BF00BFFFF796
:100EF000D9FE0346002BFAD0FB7B03F01F03052B22
:100F000001D1012300E0002318461037BD4680BD03
:100F100080B584B000AF03463960FB71FFF7EEFE89
:100F20000346FF2B01D0FF2340E0FB791846FFF773
:100F30009FFE3B681B0EDBB21846FFF799FE3B682D
:100F40001B0CDBB21846FFF793FE3B681B0ADBB2B3
:100F50001846FFF78DFE3B68DBB21846FFF788FEA8
:100F60000023FB73FB79402B01D19523FB73FB79A5
:100F7000482B01D18723FB73FB7B1846FFF778FED4
:100F8000FB794C2B01D1FFF78DFE0A23BB73FFF7D2
:100F900089FE03467B7397F90D30002B05DABB7B86
:100FA000013BBB73BB7B002BF1D17B7B1846103719
:100FB000BD4680BD90B585B000AF0346FB71FB799F
:100FC000002B01D00123D5E06C4B1B78DBB203F082
:100FD0000203002B03D0694B1B78DBB2CAE0FFF79A
:100FE000A9FEFFF72DFE0023BB7300214020FFF771
:100FF0008FFF0346012B40F0A580614B64221A70DD
:101000004FF4D5714820FFF783FF0346012B58D1D9
:101010000023FB730CE0FC7BFFF744FE03461A46FB
:1010200004F110033B4403F8082CFB7B0133FB73F2
:10103000FB7B032BEFD9BB7A012B40F08380FB7A3B
:10104000AA2B7FD100217720FFF762FF0346012BF7
:1010500007D84FF080416920FFF75AFF0346002B65
:1010600005D0474B1B78DBB2002BEBD100E000BF73
:10107000434B1B78DBB2002B64D000217A20FFF7B2
:1010800047FF0346002B5DD10023FB730CE0FC7B84
:10109000FFF708FE03461A4604F110033B4403F829
:1010A000082CFB7B0133FB73FB7B032BEFD93B7AD3
:1010B00003F04003002B01D0062300E00223BB73A2
:1010C00040E000217720FFF723FF0346012B08D8DB
:1010D00000216920FFF71CFF0346012B01D80223E2
:1010E00000E00123BB73BB7B022B0ED100217720D4
:1010F000FFF70EFF0346012B0ED800216920FFF7F2
:1011000007FF0346002B07D10DE000214120FFF728
:10111000FFFE0346002B05D0194B1B78DBB2002BDA
:10112000E1D100E000BF164B1B78DBB2002B07D0EB
:101130004FF400715020FFF7EBFE0346002B01D067
:101140000023BB730F4ABB7B1370FFF785FDFFF7CE
:10115000A9FDBB7B002B08D0084B1B78DBB223F02A
:101160000103DAB2054B1A7001E0FFF72FFE034BC3
:101170001B78DBB218461437BD4690BD0000002036
:10118000D45C00202001002080B483B000AF03466F
:10119000FB71FB79002B01D0012302E0044B1B788B
:1011A000DBB218460C37BD465DF8047B704700BFC4
:1011B0000000002080B584B000AFB9607A603B6069
:1011C0000346FB73FB7B002B02D13B68002B01D154
:1011D000042351E02A4B1B78DBB203F00103002B00
:1011E00001D0032348E0274B1B7803F00403002BB6
:1011F00002D17B685B027B60FFF722FD3B68012B1D
:1012000011D179685120FFF783FE0346002B29D1C5
:101210004FF40071B868FFF7F1FD0346002B21D0B1
:1012200000233B601EE079685220FFF771FE034601
:10123000002B17D14FF40071B868FFF7DFFD0346AC
:10124000002B0AD0BB6803F50073BB603B68013B11
:101250003B603B68002BEDD100E000BF00214C203B
:10126000FFF756FEFFF7F8FCFFF71CFD3B68002B6D
:1012700014BF01230023DBB218461037BD4680BDE2
:10128000000000202001002080B584B000AFB960CC
:101290007A603B600346FB73FB7B002B02D13B680B
:1012A000002B01D104236BE0374B1B78DBB203F03A
:1012B0000103002B01D0032362E0334B1B78DBB228
:1012C00003F00403002B01D0022359E02F4B1B78BD
:1012D00003F00403002B02D17B685B027B60FFF705
:1012E000AFFC3B68012B10D179685820FFF710FE46
:1012F0000346002B3AD1FE21B868FFF7B5FD03463F
:10130000002B33D000233B6030E0204B1B7803F0F0
:101310000203002B07D000217720FFF7F9FD396881
:101320005720FFF7F5FD79685920FFF7F1FD0346D7
:10133000002B1BD1FC21B868FFF796FD0346002B5C
:101340000AD0BB6803F50073BB603B68013B3B60A0
:101350003B68002BEED100E000BFFD210020FFF72D
:1013600083FD0346002B01D101233B60FFF774FC92
:10137000FFF798FC3B68002B14BF01230023DBB26E
:1013800018461037BD4680BD000000202001002017
:1013900090B58BB000AF03463A60FB710B46BB7152
:1013A0003B683B62FB79002B01D0042319E1012348
:1013B00087F82730BB79052B29D13B6A1B78022B94
:1013C00017D0022B1FDC002B02D0012B0BD01AE010
:1013D000FFF708FD0346002B01D0FFF7F7FC0023C1
:1013E00087F82730FBE0FFF7A5FC002387F82730BC
:1013F000F5E03B6A5C1CFFF7F5FC03462370002315
:1014000087F82730EBE0042387F82730E7E0774BB5
:101410001B78DBB203F00103002B01D00323E0E0D3
:10142000FFF70EFCBB790D2B00F2CA8001A252F827
:1014300023F000BF2B1500086D1400081B150008D1
:10144000C1150008C1150008C1150008C115000824
:10145000C1150008C1150008C1150008C115000814
:101460003D15000861150008851500080021492078
:10147000FFF74EFD0346002B40F0A68007F10C035A
:1014800010211846FFF7BAFC0346002B00F09C80A1
:101490003B7B9B09DBB2012B0DD17B7D1A463B7D4B
:1014A0001B029BB213449BB20133FB83FB8B9A025A
:1014B0003B681A602DE07B7C03F00F03DAB2BB7D42
:1014C000DB09DBB21344DAB27B7D5B00DBB203F0F5
:1014D0000603DBB21344DBB2023387F826303B7DD0
:1014E0009B09DBB21A46FB7C9B009BB213449AB269
:1014F000BB7C9B029BB203F440639BB213449BB240
:101500000133FB83FA8B97F82630093B9A403B68FE
:101510001A60002387F8273056E03B684FF40072CA
:101520001A80002387F8273055E0FFF7E7FB0346D2
:10153000FF2B4BD1002387F8273047E000214920BB
:10154000FFF7E6FC0346002B42D11021386AFFF773
:1015500055FC0346002B3BD0002387F8273037E0AB
:1015600000214A20FFF7D4FC0346002B32D1102182
:10157000386AFFF743FC0346002B2BD0002387F883
:10158000273027E000217A20FFF7C2FC0346002B1A
:1015900016D1002387F826300BE03C6A631C3B62BF
:1015A000FFF780FB0346237097F82630013387F856
:1015B000263097F82630032BEFD9002387F8273001
:1015C000042387F8273006E000BF04E000BF02E0F4
:1015D00000BF00E000BFFFF73FFBFFF763FB97F89A
:1015E000273018462C37BD4690BD00BF00000020B4
:1015F00080B586B002AF0346FB7197F9073023F040
:101600000F035BB243F00C035BB2DBB23B733B7B7B
:1016100023F00403DBB27B73FB791B015BB243F065
:101620000C035BB2DBB2BB73BB7B23F00403DBB206
:10163000FB7307F10C026423009304234E21054839
:1016400009F0E0F901200BF093FE00BF1037BD4612
:1016500080BD00BFCC01002080B586B002AF03463C
:10166000FB71FB7923F00F03FB73FB791B01BB7349
:10167000FB7B43F00D03DBB23B72FB7B43F00903C2
:10168000DBB27B72BB7B43F00D03DBB2BB72BB7B77
:1016900043F00903DBB2FB7207F1080264230093F5
:1016A00004234E21044809F0ADF901200BF060FE3F
:1016B00000BF1037BD4680BDCC01002080B500AF13
:1016C0000120FFF795FF01200BF052FE00BF80BD07
:1016D00080B500AF32200BF04BFE3020FFF788FFC3
:1016E00005200BF045FE3020FFF782FF01200BF0B4
:1016F0003FFE3020FFF77CFF0A200BF039FE202050
:10170000FFF776FF0A200BF033FE2820FFF770FF6B
:1017100001200BF02DFE0820FFF76AFF01200BF0DF
:1017200027FE0120FFF764FF01200BF021FE0120BE
:101730000BF01EFE0620FFF75BFF01200BF018FEEA
:101740000C20FFF755FF01200BF012FE00BF80BDFB
:1017500080B582B000AF786006E07B685A1C7A6082
:101760001B781846FFF778FF7B681B78002BF4D1B5
:1017700001200BF0FDFD00BF0837BD4680BD000015
:1017800080B582B000AF4FF4806200212E480CF08B
:10179000F9FF2E4B1B682E4A934204D12D4B4FF478
:1017A00080621A8003E02B4B4FF400721A800023F2
:1017B000FB803FE00023BB8032E0B7F90630224ACD
:1017C00032F913309AB2234BB3F900301946B7F906
:1017D00006301944B7F90430CB1A5942C3F3090350
:1017E000C1F3090158BF4B42194931F91330194669
:1017F0000B46DB000B44184981FB03018910DB1702
:10180000CB1A9BB213449AB2B7F9063011B20E4A02
:1018100022F81310B7F904309BB201339BB2BB809E
:10182000B7F90430042BC8DDB7F906309BB2013399
:101830009BB2FB80B7F90630B3F5007FBADB00BF7F
:1018400000BF0837BD4680BD8058002080000020C2
:10185000202C00208A5C00206766666680B582B016
:1018600000AF78600B467B807A884FF4FA63796822
:1018700008480BF0C6F903461A46074B1A70064B88
:101880001B78002B01D000F0C1FD00BF0837BD461A
:1018900080BD00BFC0020020885C002080B582B0FF
:1018A00000AF7860396012223968786803F0FAFB7B
:1018B00003461A46034B1A70024B1B78184608372A
:1018C000BD4680BD18240020B0B5B2B000AF0122E3
:1018D0004649474803F082FB03461A46454B1A70B7
:1018E000444B1B78002B0BD007F10C03424A1C46DB
:1018F00015460FCD0FC40FCD0FC42B6823800AE00F
:1019000007F10C033D4A1C4615460FCD0FC40FCD01
:101910000FC42B68238007F10C0332211846FFF710
:101920009DFF07F108023B1D1946304804F019F8E5
:10193000BB681B6A023BBA68528902FB03F3184674
:10194000FEF71AFF4FF000022D4BFEF7A9FC0246EE
:101950000B4610461946FEF789FF0346C7F8C43008
:1019600007F14003D7F8C420264918460CF0EAFED8
:1019700007F1400380211846FFF770FF07F140038D
:101980008022002118460CF0FDFEBB685B891A46D8
:101990007B6802FB03F31846FEF7EEFE4FF00002F1
:1019A000174BFEF77DFC02460B4610461946FEF724
:1019B0005DFF0346C7F8C03007F14003D7F8C020E9
:1019C000114918460CF0BEFE07F14003802118466D
:1019D000FFF744FF07F140038022002118460CF076
:1019E000D1FE00BFC837BD46B0BD00BF94F10008AE
:1019F000AC0300201824002098F10008BCF1000876
:101A00000000E03FE0F10008FCF1000880B586B07E
:101A100000AF594B1968594B1A684FF40073584876
:101A20000CF0AAF8554B1868544B1A684FF4007321
:101A30004FF4FA610CF0D6FA524B1B78002B1AD0F7
:101A4000FFF79EFE4FF400734F4A50494E480CF08A
:101A5000C9FA4A4B1A684FF400734B4948480BF0D7
:101A6000E9FE464B1868454B1A684FF400734FF473
:101A7000FA610CF0B7FA414B1B684FF480621946CB
:101A800043480CF01DFF434A414943480BF0ECFD2D
:101A900000237B610CE03F4A7B6932F913301B0263
:101AA00019B23C4A7B6922F813107B6901337B61D0
:101AB0007B69B3F5806FEEDB4FF400723549354832
:101AC0000CF0C2F9BA1D354B40F2FF1134480BF04F
:101AD0000BFD324B1B68052B12D8324B93F90030AB
:101AE000142B03DD304B00221A701BE02D4B93F9B1
:101AF0000030DBB20133DBB25AB22A4B1A7011E06C
:101B0000284B93F90030002B03DC274B01221A707D
:101B100008E0244B93F90030DBB2043BDBB25AB24D
:101B2000204B1A7000233B611DE0144B1A683B697F
:101B30005B001344B3F900301A4607F108031B4950
:101B400018460CF0FFFD1A4B19683A6913469B00C2
:101B500013440B4407F10801052218460CF01AFE45
:101B60003B6901333B613B69B3F5007FDDDB00BFBF
:101B700000BF1837BD4680BD7C00002080000020DB
:101B800020480020815C002080580020A8E4FFFF4E
:101B9000804C002080500020684C0020845C002095
:101BA00082500020825C00208800002018F200088B
:101BB0008400002080B582B002AF0BF097FB00F0EC
:101BC0007FF800F047FA00F00FFA00F0E1F800F0BB
:101BD00031F900F05DF900F091F900F0DBF900F067
:101BE0000FFF25480AF0F2FB244B1B684FF480627C
:101BF0001946234807F0F8FB1E22224922480BF021
:101C0000DBFB4FF400730093204B1E4A1E2120483B
:101C10000BF09CFF03461A461E4B1A70012300224C
:101C20004FF400711C480BF07DFD03461A46194B1A
:101C30001A70FFF749FEFFF74BFDFFF73FFD04F079
:101C4000B5F8164A0021164804F0FAF80346154A7A
:101C50001360154A0021154804F0F2F80346144AAF
:101C60001360144A0021144804F0EAF80346134AAA
:101C7000136004F0BFF8FEE7780200207C0000202B
:101C80002401002070030020040000202C480020C4
:101C900020480020895C0020684C0020ECF20008FD
:101CA000552200086403002010F300089922000860
:101CB0006803002034F30008912300086C0300201F
:101CC00080B594B000AF07F1200330220021184600
:101CD0000CF058FD07F10C0300221A605A609A605C
:101CE000DA601A610023BB60274B1B6C264A43F065
:101CF00080531364244B1B6C03F08053BB60BB68A0
:101D000000237B60214B1B68204A43F4404313604F
:101D10001E4B1B6803F440437B607B6801233B62DE
:101D20004FF480337B620223BB634FF48003FB6379
:101D300004233B6464237B640223BB640423FB64AD
:101D400007F12003184609F065F90346002B01D07E
:101D500000F05CFB0F23FB6002233B6100237B61EF
:101D60004FF48053BB610023FB6107F10C03032197
:101D7000184609F0C7FB0346002B01D000F046FBD4
:101D800000BF5037BD4680BD0038024000700040A3
:101D900080B584B000AF3B4600221A605A609A605A
:101DA000DA60224B224A1A60204B4FF480325A608C
:101DB0001E4B00229A601D4B00221A611B4B002211
:101DC0001A761A4B002283F82020184B4FF08052CD
:101DD000DA62164B4FF0C0629A62144B0022DA604E
:101DE000124B0122DA61114B002283F830200F4B95
:101DF00001225A610D4807F0B3FA0346002B01D0C7
:101E000000F004FB00233B6001237B600023BB60E8
:101E10003B461946054807F0E1FB0346002B01D07D
:101E200000F0F4FA00BF1037BD4680BD2401002049
:101E30000020014080B500AF124B134A1A60114BCD
:101E4000124A5A600F4B00229A600E4B0022DA6051
:101E50000C4B4FF480421A610A4B00225A61094B25
:101E600000229A61074B0022DA61064B00221A62B7
:101E7000044808F083FC0346002B01D000F0C6FAAA
:101E800000BF80BDCC01002000540040A0860100AE
:101E900080B500AF174B184A1A60164B4FF4827288
:101EA0005A60144B00229A60124B0022DA60114BE8
:101EB00000221A610F4B00225A610E4B4FF4007240
:101EC0009A610C4B0022DA610A4B00221A62094B1C
:101ED00000225A62074B00229A62064B0A22DA62FB
:101EE000044809F061FD0346002B01D000F08EFA92
:101EF00000BF80BD200200200038004080B586B0C1
:101F000000AF07F1080300221A605A609A60DA6095
:101F10003B4600221A605A601D4B4FF080421A6007
:101F20001B4B09225A601A4B00229A60184B40F64C
:101F3000C312DA60164B00221A61154B00229A6117
:101F400013480AF0F3F90346002B01D000F05EFAC3
:101F50004FF48053BB6007F1080319460C480AF0A0
:101F6000F9FB0346002B01D000F050FA20233B6020
:101F700080237B603B46194605480AF055F9034625
:101F8000002B01D000F042FA00BF1837BD4680BDDB
:101F90007802002080B500AF114B124A1A60104B36
:101FA0004FF461325A600E4B00229A600C4B0022B3
:101FB000DA600B4B00221A61094B08225A61084B68
:101FC00000229A61064B0022DA6105480AF0CCFD36
:101FD0000346002B01D000F019FA00BF80BD00BFFE
:101FE000C00200200044004080B582B000AF002352
:101FF0007B60174B1B6B164A43F480031363144B2F
:102000001B6B03F480037B607B6800233B60104BF9
:102010001B6B0F4A43F4001313630D4B1B6B03F44C
:1020200000133B603B6800220521112007F03EFEB3
:10203000112007F057FE00220521382007F036FE58
:10204000382007F04FFE00BF0837BD4680BD00BFF7
:102050000038024080B58AB000AF07F114030022B7
:102060001A605A609A60DA601A6100233B61414B42
:102070001B6B404A43F0040313633E4B1B6B03F09E
:1020800004033B613B690023FB603A4B1B6B394AFD
:1020900043F080031363374B1B6B03F08003FB603B
:1020A000FB680023BB60334B1B6B324A43F00103D8
:1020B0001363304B1B6B03F00103BB60BB68002351
:1020C0007B602C4B1B6B2B4A43F002031363294BA1
:1020D0001B6B03F002037B607B68002220212648F3
:1020E00008F01AFB00220121244808F015FB4FF4E8
:1020F00000537B614FF40413BB610023FB6107F1C4
:10210000140319461E4808F06BF920237B61012354
:10211000BB610023FB6100233B6207F114031946F6
:10212000154808F05DF901237B610123BB610023A1
:10213000FB6100233B6207F1140319460F4808F0C6
:102140004FF94FF400737B610023BB610023FB61F7
:1021500007F1140319460A4808F042F90022052144
:10216000282007F0A3FD282007F0BCFD00BF28377A
:10217000BD4680BD0038024000000240000402401D
:102180000008024080B483B000AF7860084B094A71
:102190001A60094B094A1A60094B0A4A1A600A4B2D
:1021A00001221A7000BF0C37BD465DF8047B7047F2
:1021B0007C0000202024002080000020203000200F
:1021C00084000020203E0020805C002080B582B08A
:1021D00000AF78600A4B0B4A1A600B4B0B4A1A602F
:1021E0000B4B0C4A1A600C4B01221A704FF48062A0
:1021F0000A490B4807F0F8F800BF0837BD4680BD14
:102200007C0000202028002080000020202C0020BE
:102210008400002020340020805C00202024002046
:102220002401002080B483B000AF0346FB80FB880C
:10223000B3F5005F06D1064B1B7883F00103DAB2D9
:10224000034B1A7000BF0C37BD465DF8047B704726
:10225000815C002080B582B000AF78600B4B1B78AA
:10226000012B0FD1FFF7D2FB094B1B78002B06D0B7
:10227000084B1B684FF420611846FFF7EFFA034B39
:1022800002221A70012003F06DFEE7E7805C002057
:102290008800002084000020B0B58CB000AF7860CA
:1022A000314B07F10C041D460FCD0FC42B68238062
:1022B00007F11E0300221A605A609A609A81012376
:1022C000FB6207F10C0319462848FFF7E7FA0346BB
:1022D0001A46274B1A70274B1B78022B40D1264BEE
:1022E0001B78002B0BD0254B1968254B4FF420622F
:1022F0001E4803F0BBF803461A461D4B1A704FF4F4
:102300000071204808F0F0F90346012B25D1174849
:1023100003F0F8FA03461A46154B1A70FFF7CEF988
:102320001948FFF715FA4FF47A7003F01BFEFFF718
:10233000C5F9FB6A0133FB6207F10C03FA6A134922
:1023400018460CF0FFF907F10C0319460748FFF790
:10235000A5FA03461A46064B1A70064B00221A705D
:10236000012003F0FFFDB6E744F20008E813002067
:1023700018240020805C00208800002084000020B9
:102380001C2400200008024020F2000830F200085F
:1023900080B588B000AF7860FFF790F90D4B1B78DF
:1023A000002B0FD00C4B1B68DA000C4B1B7807F18D
:1023B00008000B490CF0C6F907F108031846FFF7AF
:1023C000C7F902E00748FFF7C3F94FF47A7003F04A
:1023D000C9FDE1E788000020845C0020815C0020CA
:1023E00064F2000878F2000880B582B000AF78602F
:1023F0007B681B68044A934201D10AF099FF00BF31
:102400000837BD4680BD00BF0040014080B400AF2A
:1024100072B600BFFEE7000080B582B000AF0023B7
:102420007B60124B5B6C114A43F4804353640F4B47
:102430005B6C03F480437B607B6800233B600B4B49
:102440001B6C0A4A43F080531364084B1B6C03F067
:1024500080533B603B6800220F216FF0010007F0C2
:1024600025FC00BF0837BD4680BD00BF00380240D4
:1024700080B58AB000AF786007F1140300221A60BB
:102480005A609A60DA601A617B681B682F4A93422F
:1024900057D100233B612E4B5B6C2D4A43F4807374
:1024A00053642B4B5B6C03F480733B613B690023EB
:1024B000FB60274B1B6B264A43F001031363244B3D
:1024C0001B6B03F00103FB60FB6801237B610323AB
:1024D000BB610023FB6107F1140319461D4807F097
:1024E0007FFF1D4B1D4A1A601B4B00225A601A4B7E
:1024F00000229A60184B0022DA60174B4FF480627A
:102500001A61154B4FF400625A61134B4FF400529D
:102510009A61114B4FF48072DA610F4B00221A62FC
:102520000D4B00225A620C4807F0EAFB0346002BD1
:1025300001D0FFF76BFF7B68074A9A63064A7B6806
:10254000936300BF2837BD4680BD00BF0020014017
:1025500000380240000002406C010020106402407C
:1025600080B58AB000AF786007F1140300221A60CA
:102570005A609A60DA601A617B681B68194A934254
:102580002CD100233B61184B1B6B174A43F002030D
:102590001363154B1B6B03F002033B613B694FF464
:1025A00040737B611223BB610023FB6103233B6209
:1025B00004237B6207F1140319460C4807F010FF4F
:1025C0000023FB60084B1B6C074A43F400131364A1
:1025D000054B1B6C03F40013FB60FB6800BF28373E
:1025E000BD4680BD00540040003802400004024057
:1025F00080B58AB000AF786007F1140300221A603A
:102600005A609A60DA601A617B681B68284A9342B4
:102610004AD100233B61274B1B6C264A43F480437D
:102620001364244B1B6C03F480433B613B69002320
:10263000FB60204B1B6B1F4A43F0040313631D4BCD
:102640001B6B03F00403FB60FB680023BB60194BAA
:102650001B6B184A43F002031363164B1B6B03F00A
:102660000203BB60BB680C237B610223BB610023B8
:10267000FB6103233B6205237B6207F114031946C8
:102680000D4807F0ADFE4FF480637B610223BB6110
:102690000023FB6103233B6205237B6207F11403E4
:1026A0001946064807F09CFE00BF2837BD4680BD8E
:1026B0000038004000380240000802400004024098
:1026C00080B485B000AF78607B681B68B3F1804F41
:1026D0000DD10023FB60094B1B6C084A43F001033A
:1026E0001364064B1B6C03F00103FB60FB6800BF27
:1026F0001437BD465DF8047B704700BF00380240C8
:1027000080B58AB000AF786007F1140300221A6028
:102710005A609A60DA601A617B681B68304A93429B
:102720005AD100233B612F4B1B6C2E4A43F40033DC
:1027300013642C4B1B6C03F400333B613B69002397
:10274000FB60284B1B6B274A43F001031363254BA7
:102750001B6B03F00103FB60FB680C237B6102230E
:10276000BB610023FB6103233B6207237B6207F10C
:10277000140319461C4807F033FE1C4B1C4A1A6010
:102780001A4B4FF000625A60184B40229A60174B68
:102790000022DA60154B4FF480621A61134B00225D
:1027A0005A61124B00229A61104B4FF48072DA6129
:1027B0000E4B00221A620D4B00225A620B4807F0A2
:1027C0009FFA0346002B01D0FFF720FE7B68074AE3
:1027D0005A63064A7B68936300BF2837BD4680BDB5
:1027E0000044004000380240000002400403002082
:1027F000A060024080B58CB000AF78600023FB621F
:102800000023BB6200227968182007F04FFA1820D5
:1028100007F068FA0023FB601E4B5B6C1D4A43F413
:10282000803353641B4B5B6C03F48033FB60FB68A9
:1028300007F1100207F114031146184609F082F857
:1028400009F06CF8F862FB6A134AA2FB03239B0CA5
:10285000013BBB62114B124A1A60104B40F2E73247
:10286000DA600E4ABB6A53600C4B00221A610B4BB4
:1028700000229A60094809F059FD0346002B04D153
:10288000064809F0FDFD034600E0012318463037F5
:10289000BD4680BD0038024083DE1B438C5C0020B7
:1028A0000040014080B400AFFEE780B400AFFEE717
:1028B00080B400AFFEE780B400AFFEE780B400AFA5
:1028C000FEE780B400AF00BFBD465DF8047B7047F3
:1028D00080B500AF024807F019FB00BF80BD00BF04
:1028E0000403002080B500AF024809F02BFE00BFB2
:1028F00080BD00BF8C5C002080B500AF4FF400505D
:1029000007F024FF00BF80BD80B500AF024807F08C
:10291000FDFA00BF80BD00BF6C01002080B586B00D
:1029200000AF7860144A154BD31A7B617B693B6119
:10293000134B1B68002B02D1114B124A1A60104B2B
:102940001A687B6813443A699A4207D20BF08CFFED
:1029500003460C221A604FF0FF3309E0084B1B6856
:10296000FB60074B1A687B681344054A1360FB68D9
:1029700018461837BD4680BD000002200004000044
:10298000D85C002050A8002080B400AF064BD3F8DC
:102990008830054A43F47003C2F8883000BFBD4652
:1029A0005DF8047B704700BF00ED00E0DFF834D035
:1029B0000D480E490E4A002302E0D458C450043397
:1029C000C4188C42F9D30B4A0B4C002301E013606E
:1029D0000432A242FBD3FFF7D7FF0BF04BFFFFF708
:1029E000E9F87047000002200000002004010020E8
:1029F00054160208040100204CA80020FEE7000045
:102A000080B500AF0449054800F05CF903461A465A
:102A1000034B1A7000BF80BDE05C002094000020D2
:102A2000DC5C002080B400AF00231846BD465DF892
:102A3000047B704780B582B000AF0346FB71FB7921
:102A40001846FEF7B7FA03461A46044B1A70034BB2
:102A50001B78DBB218460837BD4680BD90000020C9
:102A600080B582B000AF0346FB71FB791846FEF7D4
:102A70008BFB034618460837BD4680BD80B584B041
:102A800000AFB9607A603B600346FB73F87B3B683C
:102A90007A68B968FEF78EFB034618461037BD46C4
:102AA00080BD80B584B000AFB9607A603B600346FA
:102AB000FB73F87B3B687A68B968FEF7E5FB034671
:102AC00018461037BD4680BD80B582B000AF0346C2
:102AD0003A60FB710B46BB71B979FB793A681846CD
:102AE000FEF756FC034618460837BD4680BD000079
:102AF00080B584B000AF0346FB71FB79084A9B00A8
:102B000013445B685B68FA7905490A44127A1046F7
:102B100098470346FB73FB7B18461037BD4680BDC4
:102B2000E45C002080B584B000AF0346FB71002355
:102B3000FB73FB790D4AD35C002B11D1FB790B4A57
:102B40000121D154FB79094A9B0013445B681B683F
:102B5000FA7906490A44127A104698470346FB73ED
:102B6000FB7B18461037BD4680BD00BFE45C0020EB
:102B700090B587B000AFB9607A603B600346FB73E5
:102B8000FB7B0A4A9B0013445B689C68FB7B074AFB
:102B90001344187A3B687A68B968A0470346FB7506
:102BA000FB7D18461C37BD4690BD00BFE45C00208D
:102BB00090B587B000AFB9607A603B600346FB73A5
:102BC000FB7B0A4A9B0013445B68DC68FB7B074A7B
:102BD0001344187A3B687A68B968A0470346FB75C6
:102BE000FB7D18461C37BD4690BD00BFE45C00204D
:102BF00080B584B000AF03463A60FB710B46BB71F1
:102C0000FB79094A9B0013445B681B69FA79064902
:102C10000A44107AB9793A6898470346FB73FB7BFC
:102C200018461037BD4680BDE45C002080B487B0F4
:102C300000AFF860B9601346FB710123FB750023F8
:102C4000BB751F4B5B7ADBB2002B31D11C4B5B7A1F
:102C5000DBB21A461A4B00219954194B5B7ADBB24E
:102C6000174A9B001344FA685A60154B5B7ADBB233
:102C70001A46134B1344FA791A72114B5B7ADBB282
:102C80005A1CD1B20E4A5172BB75BB7D3033DAB2D9
:102C9000BB681A70BB6801333A221A70BB680233F2
:102CA0002F221A70BB68033300221A700023FB75B1
:102CB000FB7D18461C37BD465DF8047B704700BF9E
:102CC000E45C002080B582B000AF786039600022FB
:102CD00039687868FFF7AAFF034618460837BD46EB
:102CE00080BD80B485B000AF78607B6801331B780D
:102CF000FB81FB891B021AB27B681B781BB2134352
:102D00001BB2FB81FB8918461437BD465DF8047B76
:102D1000704780B485B000AF78607B6803331B7860
:102D2000FB60FB681B027A68023212781343FB6077
:102D3000FB681B027A68013212781343FB60FB6860
:102D40001B027A6812781343FB60FB68184614373D
:102D5000BD465DF8047B704780B483B000AF7860F7
:102D60000B467B807B685A1C7A607A88D2B21A70D4
:102D70007B881B0A7B807B685A1C7A607A88D2B277
:102D80001A7000BF0C37BD465DF8047B704780B4F5
:102D900083B000AF786039607B685A1C7A603A680B
:102DA000D2B21A703B681B0A3B607B685A1C7A607F
:102DB0003A68D2B21A703B681B0A3B607B685A1CA7
:102DC0007A603A68D2B21A703B681B0A3B607B6833
:102DD0005A1C7A603A68D2B21A7000BF0C37BD46EE
:102DE0005DF8047B704780B487B000AFF860B960CD
:102DF0007A60FB687B61BB683B617B68002B0DD010
:102E00003A69531C3B617B69591C796112781A70CD
:102E10007B68013B7B607B68002BF1D100BF1C37D6
:102E2000BD465DF8047B704780B487B000AFF860A2
:102E3000B9607A60FB687B617B695A1C7A61BA6809
:102E4000D2B21A707B68013B7B607B68002BF3D1A8
:102E500000BF00BF1C37BD465DF8047B704780B4DF
:102E600089B000AFF860B9607A60FB68FB61BB684D
:102E7000BB6100237B61FB695A1CFA611B78194610
:102E8000BB695A1CBA611B78CB1A7B617B68013B1A
:102E90007B607B68002B02D07B69002BEBD07B69C9
:102EA00018462437BD465DF8047B704780B483B074
:102EB00000AF7860396002E07B6801337B607B683B
:102EC0001B78002B05D07B681B781A463B68934221
:102ED000F2D17B681B7818460C37BD465DF8047B41
:102EE000704780B582B000AF78607B68002B09D056
:102EF0007B685B69184602F0DEFE0346002B01D0BA
:102F0000012300E0002318460837BD4680BD80B588
:102F100082B000AF78600B46FB707B68002B0DD051
:102F2000FB780C2B0AD0FB780B2B07D0FB780F2BF0
:102F300004D07B685B69184602F0D2FE00BF0837F8
:102F4000BD4680BD80B485B000AF78603960002395
:102F5000BB60BB68FB6029E0274AFB681B01134488
:102F60001B68002B1DD0244AFB681B0113441A6800
:102F70007B681B689A4216D11F4AFB681B011344E9
:102F800004331A687B689B689A420CD11A4AFB6822
:102F90001B01134408331A687B685B699A4202D1AB
:102FA00007E00123BB60FB680133FB60FB68012B7A
:102FB000D2D9FB68022B09D1BB68002B02D13B6838
:102FC000022B01D1002310E012230EE03B68002BFE
:102FD00008D1094AFB681B0113440C331B88B3F565
:102FE000807F01D1102300E0002318461437BD462E
:102FF0005DF8047B704700BFF85C002080B483B0AC
:1030000000AF00237B6002E07B6801337B607B685C
:10301000012B06D8094A7B681B0113441B68002B4F
:10302000F2D17B68022B14BF01230023DBB21846C8
:103030000C37BD465DF8047B704700BFF85C00208C
:1030400080B485B000AF786039600023FB601FE07A
:10305000414AFB681B0113441A687B681B689A424B
:1030600013D13D4AFB681B01134404331A687B6883
:103070009B689A4209D1384AFB681B011344083304
:103080001A687B685B699A4206D0FB680133FB6073
:10309000FB68012BDCD900E000BFFB68022B32D1BA
:1030A0000023FB6002E0FB680133FB60FB68012B3F
:1030B00006D8294AFB681B0113441B68002BF2D178
:1030C000FB68022B01D1002340E07B681A6822498B
:1030D000FB681B010B441A607B689A681E49FB68F9
:1030E0001B010B4404331A607B685A691A49FB6858
:1030F0001B010B4408331A60174AFB681B01134479
:103100000C3300221A803B68002B09D0124AFB685E
:103110001B0113440C331B88002B01D0002315E046
:103120003B68002B08D10C4AFB681B0113440C338D
:103130001B8801339AB201E04FF480720649FB68A4
:103140001B010B440C331A80FB68013318461437FB
:10315000BD465DF8047B7047F85C002080B485B004
:1031600000AF78607B68013B7B607B68012B25D8D2
:10317000174A7B681B0113440C331B88FB81FB89B6
:10318000B3F5807F01D10023FB81FB89002B02D0A6
:10319000FB89013BFB810E4A7B681B0113440C3306
:1031A000FA891A80FB89002B05D1094A7B681B012B
:1031B000134400221A6000237B7301E002237B7317
:1031C0007B7B18461437BD465DF8047B704700BF13
:1031D000F85C002080B485B000AF78600023FB600D
:1031E00010E00D4AFB681B0113441B687A689A4281
:1031F00005D1094AFB681B01134400221A60FB68D1
:103200000133FB60FB68012BEBD900BF00BF143713
:10321000BD465DF8047B7047F85C002080B586B041
:1032200000AF78600023FB737B68DB78002B34D021
:103230007B689B6B7B617B6858787B6803F13C0102
:1032400001237A69FFF7B4FC0346002B02D0012367
:10325000FB7322E07B680022DA707B68DB6A7A69A4
:10326000D21A7B685B6A9A4217D27B689B783B6173
:1032700010E07B685B6A7A6913447B617B685878ED
:103280007B6803F13C0101237A69FFF791FC3B69FC
:10329000013B3B613B69012BEBD8FB7B18461837A0
:1032A000BD4680BD80B584B000AF78603960002332
:1032B000FB737B689B6B3A689A421BD07868FFF778
:1032C000ADFF0346FB73FB7B002B13D17B68587863
:1032D0007B6803F13C0101233A68FFF749FC034690
:1032E000002B04D04FF0FF333B600123FB737B685E
:1032F0003A689A63FB7B18461037BD4680BD0000D4
:1033000080B584B000AF78607868FFF787FF034628
:10331000FB73FB7B002B59D17B681B78032B49D1B6
:103320007B681B79012B45D17B6803F13C007B68EE
:103330009B891A460021FFF777FD7B683C3303F534
:10334000FF734AF655211846FFF706FD7B683C33AC
:1033500021491846FFF71BFD7B683C3303F5F273E8
:103360001E491846FFF713FD7B683C3303F5F472E2
:103370007B68DB6919461046FFF709FD7B683C3323
:1033800003F5F6727B689B6919461046FFF7FFFC50
:103390007B689B6A5A1C7B689A637B6858787B6859
:1033A00003F13C017B689A6B0123FFF701FC7B680A
:1033B00000221A717B685B78002200211846FFF713
:1033C00017FC0346002B01D00123FB73FB7B18463F
:1033D0001037BD4680BD00BF5252614172724161DB
:1033E00080B483B000AF786039603B68023B3B60DB
:1033F0007B681B6A023B3A689A4201D3002308E0CB
:103400007B685B891A463B6803FB02F27B685B6B57
:10341000134418460C37BD465DF8047B704780B5F1
:1034200086B000AF786039607B681B683B613B68A1
:10343000012B04D93B691B6A3A689A4202D30123E3
:103440007B61BAE04FF0FF337B613B691B78032B54
:1034500000F08280032B00F3A680012B02D0022B08
:1034600055D0A0E03B68FB60FB685B08FA6813443A
:10347000FB603B69DA6A3B699B891946FB68B3FBD1
:10348000F1F3134419463869FFF70CFF0346002B8C
:1034900040F08C80FB685A1CFA603A699289B3FB51
:1034A000F2F101FB02F29B1A3A69134493F83C30A3
:1034B000BB603B69DA6A3B699B891946FB68B3FBD1
:1034C000F1F3134419463869FFF7ECFE0346002B6D
:1034D0006ED13B699B891A46FB68B3FBF2F101FB95
:1034E00002F29B1A3A69134493F83C301B02BA6803
:1034F0001343BB603B6803F00103002B02D0BB68A1
:103500001B0902E0BB68C3F30B037B6155E03B6919
:10351000DA6A3B699B895B089BB219463B68B3FB3F
:10352000F1F3134419463869FFF7BCFE0346002B3C
:1035300040D13B6903F13C013B685B003A699289E9
:10354000B3FBF2F000FB02F29B1A0B441846FFF7A4
:10355000C8FB03467B6130E03B69DA6A3B699B89C3
:103560009B089BB219463B68B3FBF1F31344194621
:103570003869FFF797FE0346002B1DD13B6903F125
:103580003C013B689B003A699289B3FBF2F000FB77
:1035900002F29B1A0B441846FFF7BBFB034623F0CD
:1035A00070437B6109E001237B6106E000BF04E01A
:1035B00000BF02E000BF00E000BF7B69184618377B
:1035C000BD4680BD90B589B000AFF860B9607A6043
:1035D0000223FB77BB68012B40F20981FB681B6A61
:1035E000BA689A4280F00381FB681B78032B00F0D5
:1035F000B680032B00F3FB80012B03D0022B00F0DD
:103600008380F4E0BB68BB61BB695B08BA691344A3
:10361000BB61FB68DA6AFB689B891946BB69B3FB2F
:10362000F1F313441946F868FFF73CFE0346FB77B5
:10363000FB7F002B40F0D480FB6803F13C01BB69A9
:103640005A1CBA61FA689289B3FBF2F000FB02F2ED
:103650009B1A0B447B61BB6803F00103002B0DD068
:103660007B691B785BB203F00F035AB27B68DBB255
:103670001B015BB213435BB2DBB201E07B68DBB2E0
:103680007A691370FB680122DA70FB68DA6AFB68FA
:103690009B891946BB69B3FBF1F313441946F868DB
:1036A000FFF700FE0346FB77FB7F002B40F09A807C
:1036B000FB6803F13C01FB689B891A46BB69B3FBBD
:1036C000F2F000FB02F29B1A0B447B61BB6803F033
:1036D0000103002B03D07B681B09DBB20EE07B6982
:1036E0001B785BB223F00F035AB27B681B0A5BB2F4
:1036F00003F00F035BB213435BB2DBB27A69137062
:10370000FB680122DA7072E0FB68DA6AFB689B8969
:103710005B089BB21946BB68B3FBF1F3134419462F
:10372000F868FFF7BFFD0346FB77FB7F002B5BD1FB
:10373000FB6803F13C01BB685B00FA689289B3FB4C
:10374000F2F000FB02F29B1A0B447A6892B2114627
:103750001846FFF701FBFB680122DA7047E0FB68BF
:10376000DA6AFB689B899B089BB21946BB68B3FB6E
:10377000F1F313441946F868FFF794FD0346FB770D
:10378000FB7F002B32D17B6823F07044FB6803F190
:103790003C01BB689B00FA689289B3FBF2F000FB26
:1037A00002F29B1A0B441846FFF7B3FA034603F0E4
:1037B000704323437B60FB6803F13C01BB689B00C3
:1037C000FA689289B3FBF2F000FB02F29B1A0B44F9
:1037D00079681846FFF7DBFAFB680122DA7006E029
:1037E00000BF04E000BF02E000BF00E000BFFB7FBD
:1037F00018462437BD4690BD80B588B000AFF8604C
:10380000B9607A600023FB77FB681B68BB61BB680B
:10381000012B04D9BB691B6ABA689A4201D30223FF
:103820004BE07B68002B0CD04FF0FF327968B86911
:10383000FFF7C8FE0346FB77FB7F002B01D0FB7F21
:103840003BE0B968F868FFF7EAFD78617B69002B17
:1038500031D07B69012B01D102232EE07B69B3F1CA
:10386000FF3F01D1012328E00022B968B869FFF7C2
:10387000A9FE0346FB77FB7F002B01D0FB7F1CE0FA
:10388000BB69DA69BB691B6A023B9A420BD2BB690E
:10389000DB695A1CBB69DA61BB691B7943F0010320
:1038A000DAB2BB691A717B69BB60BB691B6ABA6813
:1038B0009A42C6D300E000BF002318462037BD4619
:1038C00080BD80B588B000AF786039607B681B68C8
:1038D0003B613B68002B0DD13B699B69BB61BB69B8
:1038E000002B04D03B691B6ABA699A421BD301239F
:1038F000BB6118E039687868FFF791FDF860FB68F4
:10390000012B01D8012370E0FB68B3F1FF3F01D127
:10391000FB686AE03B691B6AFA689A4201D2FB685D
:1039200063E03B68BB61BB69FB61FB690133FB6121
:103930003B691B6AFA699A4207D30223FB61FA6961
:10394000BB699A4201D900234FE0F9697868FFF713
:1039500066FDF860FB68002B0ED0FB68012B03D0DE
:10396000FB68B3F1FF3F01D1FB683EE0FA69BB6938
:103970009A42DAD1002338E000BF4FF0FF32F969F4
:103980003869FFF71FFE0346FB75FB7D002B09D14D
:103990003B68002B06D0FA6939683869FFF712FED8
:1039A0000346FB75FB7D002B16D13B69FA699A61D2
:1039B0003B69DA693B691B6A023B9A4204D83B695E
:1039C000DB695A1E3B69DA613B691B7943F00103ED
:1039D000DAB23B691A7107E0FB7D012B02D14FF08F
:1039E000FF3300E00123FB61FB6918462037BD4629
:1039F00080BD80B487B000AF786039607B681B6899
:103A0000FB607B68DB6A04333B61FB689B891A4679
:103A10003B68B3FBF2F3FA685289B3FBF2F37B61C4
:103A20003B691A1D3A611B68BB60BB68002B01D162
:103A3000002310E07A69BB689A4207D37A69BB68B1
:103A4000D31A7B613B6904333B61E9E700BF3B6903
:103A50001A687B69134418461C37BD465DF8047B21
:103A6000704780B586B000AF786039607B681B68AE
:103A70003B613B68B3F5001F04D23B6803F01F03B2
:103A8000002B01D0022371E07B683A685A617B68A1
:103A90009B687B617B69002B06D13B691B78022BFD
:103AA00002D93B691B6B7B617B69002B0CD13B68A6
:103AB0005B093A691289934201D3022356E03B69BC
:103AC0001A6B7B68DA612DE03B695B891A463B69BA
:103AD0009B8902FB03F3FB6019E07B687969184658
:103AE000FFF79DFC78617B69B3F1FF3F01D10123B2
:103AF0003CE07B69012B04D93B691B6A7A699A42D5
:103B000001D3022332E03A68FB68D31A3B603A687B
:103B1000FB689A42E1D279693869FFF761FC024695
:103B20007B68DA617B687A699A617B68DB69002B64
:103B300001D102231AE07B68DA693B699B89194647
:103B40003B68B3FBF1F31A447B68DA613B6903F12C
:103B50003C013B699B891A463B68B3FBF2F000FBD2
:103B600002F29B1ACA187B681A620023184618379B
:103B7000BD4680BD80B586B000AF786039607B6897
:103B80001B68FB607B685B692033BB607B68DB691B
:103B9000002B03D0BB68B3F5001F01D30423BBE0A7
:103BA000FB689B891A46BB68B3FBF2F101FB02F28A
:103BB0009B1A002B40F09D807B68DB695A1C7B6858
:103BC000DA617B689B69002B0BD1BB685B09FA68E3
:103BD00012899342C0F08D807B680022DA61042351
:103BE0009AE0FB689B891A46BB68B3FBF2F3FA685C
:103BF0005289013A1340002B7BD17A687B689B691C
:103C000019461046FFF70BFC78617B69012B01D840
:103C1000022381E07B69B3F1FF3F01D101237BE007
:103C2000FB681B6A7A699A4259D33B68002B04D11E
:103C30007B680022DA6104236EE07A687B689B6906
:103C400019461046FFF73DFE78617B69002B01D1D4
:103C5000072361E07B69012B01D102235CE07B69D2
:103C6000B3F1FF3F01D1012356E0F868FFF7D6FA20
:103C70000346002B01D001234EE0FB6803F13C001A
:103C8000FB689B891A460021FFF7CEF800233B61B1
:103C90007969F868FFF7A4FB0246FB689A6312E0B3
:103CA000FB680122DA70F868FFF7B8FA0346002BC8
:103CB00001D0012330E03B6901333B61FB689B6B22
:103CC0005A1CFB689A63FB685B891A463B699342FE
:103CD000E6D3FB689A6B3B69D21AFB689A637B68F0
:103CE0007A699A617969F868FFF77AFB02467B681E
:103CF000DA617B68BA685A61FB6803F13C01FB68D2
:103D00009B891A46BB68B3FBF2F000FB02F29B1AD8
:103D1000CA187B681A62002318461837BD4680BD52
:103D200080B586B000AF786039607B681B68FB6047
:103D300000217868FFF795FE0346FB75FB7D002B9D
:103D40002BD100233B617B68DB691946F868FFF7DC
:103D5000A9FA0346FB75FB7D002B1DD17B681B6A0E
:103D60001B78E52B04D07B681B6A1B78002B07D1DE
:103D70003B6901333B613A693B689A4202D10CE0EE
:103D800000233B6101217868FFF7F4FE0346FB75D1
:103D9000FB7D002BD7D000E000BFFB7D042B01D1C1
:103DA0000723FB75FB7D18461837BD4680BD80B5DF
:103DB00084B000AF786039603B681A331846FEF76C
:103DC00090FF0346FB607B681B78032B09D13B689F
:103DD00014331846FEF785FF03461B04FA681343A5
:103DE000FB60FB6818461037BD4680BD80B584B0C7
:103DF00000AFF860B9607A60BB681A337A6892B233
:103E000011461846FEF7A8FFFB681B78032B09D163
:103E1000BB6803F114027B681B0C9BB21946104669
:103E2000FEF79AFF00BF1037BD4680BD90B587B042
:103E300000AF786039603B681A331846FEF751FFCF
:103E40000346002B01D0002359E03B681B7803F0A8
:103E50003F035A1E13465B0013449B0013447B61CF
:103E60000123FB8100233B6133E0274A3B69134474
:103E70001B781A463B6813441846FEF732FF034688
:103E8000BB81FB89002B1AD07B69FE2B12D8BB8922
:103E9000184601F05FFE03461C467B695A1C7A6196
:103EA0005B007A6813441B88184601F053FE0346F2
:103EB0009C4201D0002322E0BB89FB8106E0BB8944
:103EC0004FF6FF72934201D0002318E03B690133A3
:103ED0003B613B690C2BC8D93B681B7803F040035E
:103EE000002B0BD0FB89002B08D07B695B007A6824
:103EF00013441B88002B01D0002300E00123184647
:103F00001C37BD4690BD00BFF0F3000880B588B0F7
:103F100000AFF860B96011461A460B46FB711346B4
:103F2000BB71BB680D33BA791A70BB680B330F22B3
:103F30001A70BB680C3300221A70BB681A33002158
:103F40001846FEF709FFFB795A1E13465B0013441F
:103F50009B001344FB610023FB820023BB61FB8AAF
:103F60004FF6FF72934207D0FB695A1CFA615B005F
:103F7000FA6813441B88FB82174ABB6913441B78F9
:103F80001A46BB681344FA8A11461846FEF7E4FE47
:103F9000FB8A002B02D14FF6FF73FB82BB69013312
:103FA000BB61BB690C2BDAD9FB8A4FF6FF729342D7
:103FB00006D0FB695B00FA6813441B88002B03D111
:103FC000FB7943F04003FB71BB68FA791A7000BFBC
:103FD0002037BD4680BD00BFF0F3000880B58CB02F
:103FE00000AFF860B9607A603B600B22B968F8688E
:103FF000FEF7F9FE3B68052B2BD93B68FB6122E0FD
:104000007B689A1C7A601B887B840023BB6217E064
:10401000FB695A007B8C03F001031344FB617B8C2A
:104020005B087B84FB6903F48033002B05D0FB69BC
:1040300083F4883383F02103FB61BB6A0133BB62E5
:10404000BB6A0F2BE4D97B681B88002BD8D1FB6996
:104050003B600723BB623B68DBB203F00F03DBB2BC
:10406000303387F82F3097F82F30392B04D997F851
:104070002F30073387F82F30BB6A5A1EBA623033AD
:104080003B4497F82F2003F81C2C3B681B093B602E
:104090003B68002BDFD107F11402BB6A13447E2278
:1040A0001A7000237B6202E07B6A01337B627A6ACA
:1040B000BB6A9A4205D2FA687B6A13441B78202BAC
:1040C000F2D1BB6A072B07D8BB6A5A1CBA623033DD
:1040D0003B4413F81C1C00E020217B6A5A1C7A62C6
:1040E000FA6813440A461A707B6A072BE9D900BFA5
:1040F00000BF3037BD4680BD80B485B000AF78606A
:104100000023FB730B23BB60FB7BDAB25208DB019D
:104110001343DAB27B68591C79601B781344FB7334
:10412000BB68013BBB60BB68002BEDD1FB7B184635
:104130001437BD465DF8047B704780B586B000AF8C
:1041400078607B681B683B6100217868FFF789FC19
:104150000346FB75FB7D002B01D0FB7DA9E0FF230F
:104160003B753B7D7B757B684FF0FF321A637B6844
:10417000DB6919463869FFF795F80346FB75FB7D47
:10418000002B40F090807B681B6A1B78BB75BB7D61
:10419000002B02D10423FB758AE07B681B6A0B337A
:1041A0001B7803F03F03FB737B68FA7B9A71BB7D3E
:1041B000E52B07D0FB7B03F00803002B09D0FB7B2A
:1041C0000F2B06D0FF237B757B684FF0FF321A63FD
:1041D0005EE0FB7B0F2B36D17B6893F82F3003F02A
:1041E0004003002B54D1BB7D03F04003002B0DD0C6
:1041F0007B681B6A5B7B3B75BB7D23F04003BB7513
:10420000BB7D7B757B685A697B681A63BA7D7B7D51
:104210009A4215D17B681B6A0D331B783A7D9A420E
:104220000ED13B691A697B681B6A19461046FFF775
:10423000FDFD0346002B03D07B7D013BDBB200E09C
:10424000FF237B7524E07B7D002B09D17B681B6AF3
:104250001846FFF751FF03461A463B7D934224D090
:104260007B6893F82F3003F00103002B0AD17B68A1
:10427000186A7B6824330B221946FEF7F0FD0346CB
:10428000002B14D0FF237B757B684FF0FF321A633D
:1042900000217868FFF76EFC0346FB75FB7D002B61
:1042A0003FF465AF04E000BF02E000BF00E000BFE4
:1042B000FB7D18461837BD4680BD000080B58CB028
:1042C00000AF78607B681B68FB617B6893F82F30D8
:1042D00003F0A003002B01D00623E0E000237B6263
:1042E00002E07B6A01337B62FB691A697B6A5B00CF
:1042F00013441B88002BF4D17B6803F1240107F1E0
:104300000C030C221846FEF76EFDFB7D03F0010343
:10431000002B32D07B68402283F82F200123BB6220
:1043200016E07B6803F12400FB691A6907F10C01B0
:10433000BB6AFFF753FE7868FFF7FFFE034687F876
:104340002F3097F82F30002B06D1BB6A0133BB62A8
:10435000BB6A632BE5D900E000BFBB6A642B01D1C7
:1043600007239CE097F82F30042B02D097F82F30CA
:1043700095E0FA7D7B6883F82F20FB7D03F0020334
:10438000002B07D07B6A0C33474AA2FB03239B0810
:10439000013300E001233B62396A7868FFF7C0FC13
:1043A000034687F82F3097F82F30002B48D13B6A0F
:1043B000013B3B623B6A002B42D07B685A693B6AF7
:1043C0005B01D31A19467868FFF74BFB034687F861
:1043D0002F3097F82F30002B32D17B6824331846CA
:1043E000FFF78AFE0346FB767B68DB691946F869AE
:1043F000FEF758FF034687F82F3097F82F30002B31
:104400001DD1FB6918697B68196A3B6ADAB2FB7EC9
:10441000FFF77CFDFB690122DA7000217868FFF765
:10442000A9FB034687F82F3097F82F30002B07D1D0
:104430003B6A013B3B623B6A002BD5D100E000BFE9
:1044400097F82F30002B28D17B68DB691946F86973
:10445000FEF728FF034687F82F3097F82F30002B00
:104460001BD17B681B6A202200211846FEF7DCFC6A
:104470007B68186A7B6824330B221946FEF7B3FC6D
:104480007B6893F82F207B681B6A0C3302F01802BC
:10449000D2B21A70FB690122DA7097F82F301846F1
:1044A0003037BD4680BD00BF4FECC44E80B58AB0EA
:1044B00000AF786039603B681B683B617B681B68B4
:1044C0001B69FB6000237B617B69BB61BB695A1C74
:1044D000BA613A6913441B78BB84BB8C1F2B40D94B
:1044E000BB8C2F2B06D0BB8C5C2B10D102E0BB69A0
:1044F0000133BB613A69BB6913441B782F2BF6D09B
:104500003A69BB6913441B785C2BF0D02AE07B69C5
:10451000FE2B01D906237DE1BB8CDBB2BB84BB8CB7
:104520000121184601F0DAFA0346BB84BB8C002B4C
:1045300001D106236EE1BB8C7F2B09D8BB8C1946B9
:104540008D48FEF7B3FC0346002B01D0062361E142
:104550007B695A1C7A615B00FA681344BA8C1A8032
:10456000B4E700BF3A69BB691A443B681A60BB8C68
:104570001F2B01D8042300E0002387F8273011E027
:104580007B6903F10043013B5B00FA6813441B881D
:10459000BB84BB8C202B02D0BB8C2E2B06D17B691D
:1045A000013B7B617B69002BEAD100E000BF7B69A6
:1045B0005B00FA68134400221A807B69002B01D14A
:1045C000062327E17B6824330B2220211846FEF7BF
:1045D0002BFC0023BB6102E0BB690133BB61BB69FB
:1045E0005B00FA6813441B88202BF5D0BB695B0085
:1045F000FA6813441B882E2BEED0BB69002B09D020
:1046000097F8273043F0030387F8273002E07B69EF
:10461000013B7B617B69002B09D07B6903F100437F
:10462000013B5B00FA6813441B882E2BEFD100235B
:1046300087F8263000233B620823FB61BB695A1CC4
:10464000BA615B00FA6813441B88BB84BB8C002BE7
:1046500000F09080BB8C202B06D0BB8C2E2B0AD177
:10466000BA697B699A4206D097F8273043F0030372
:1046700087F827307DE03A6AFB699A4203D2BA692B
:104680007B699A4223D1FB690B2B06D197F827301F
:1046900043F0030387F8273075E0BA697B699A42D3
:1046A00005D097F8273043F0030387F82730BA691D
:1046B0007B699A4266D87B69BB6108233B620B2306
:1046C000FB6197F826309B0087F8263051E0BB8CC1
:1046D0007F2B14D9BB8C0021184601F0FFF903464B
:1046E000BB84BB8C002B04D0BB8C803B234AD35CA7
:1046F000BB8497F8273043F0020387F82730BB8C40
:10470000002B07D0BB8C19461D48FEF7CFFB034694
:10471000002B08D05F23BB8497F8273043F00303B6
:1047200087F827301BE0BB8C402B09D9BB8C5A2B58
:1047300006D897F8263043F0020387F826300EE0BB
:10474000BB8C602B0BD9BB8C7A2B08D897F8263002
:1047500043F0010387F82630BB8C203BBB843B6AC7
:104760005A1C3A62BA8CD1B27A6813440A4683F86A
:10477000242063E700BF06E08CF2000870F3000815
:1047800098F2000800BF7B6893F82430E52B03D132
:104790007B68052283F82420FB69082B04D197F855
:1047A00026309B0087F8263097F8263003F00C035C
:1047B0000C2B05D097F8263003F00303032B05D10B
:1047C00097F8273043F0020387F8273097F827300F
:1047D00003F00203002B17D197F8263003F00303F0
:1047E000012B05D197F8273043F0100387F82730C5
:1047F00097F8263003F00C03042B05D197F82730E7
:1048000043F0080387F827307B6897F8272083F860
:104810002F20002318462837BD4680BD80B586B0BE
:1048200000AF786039607B683B613B691B68FB6067
:1048300002E03B6801333B603B681B782F2BF8D0CC
:104840003B681B785C2BF4D03B6900229A603B6884
:104850001B781F2B0AD87B68802283F82F20002129
:104860007868FFF7FEF80346FB7548E03B461946BB
:104870007868FFF71BFE0346FB75FB7D002B39D1E3
:104880007868FFF75AFC0346FB757B6893F82F3076
:10489000FB72FB7D002B0AD0FB7D042B2CD1FB7A15
:1048A00003F00403002B27D10523FB7524E0FB7ADA
:1048B00003F00403002B21D13B699B7903F0100323
:1048C000002B02D10523FB7519E0FB6803F13C01C5
:1048D0007B685B69FA689289B3FBF2F000FB02F235
:1048E0009B1A0B441946F868FFF761FA02463B69C8
:1048F0009A60BBE700BF02E000BF00E000BFFB7DA5
:1049000018461837BD4680BD80B487B000AF7860C8
:104910004FF0FF333B617B681B68002B31D07B6815
:104920001B687B6102E07B6901337B617B691B78DB
:104930001F2B03D97B691B783A2BF4D17B691B7839
:104940003A2B1CD17B681B68FB60FB685A1CFA6021
:104950001B78303BBB60BB68092B0ED8FA687B69BB
:104960009A420AD1BB68002B07D1BB683B617B69C7
:1049700001337B617B687A691A603B6902E000233E
:104980003B613B6918461C37BD465DF8047B7047A8
:1049900080B582B000AF786039607B680022DA7041
:1049A0007B684FF0FF329A6339687868FEF77AFCCB
:1049B0000346002B01D0042338E07B683C3303F529
:1049C000FF731846FEF78DF903461A464AF655233B
:1049D0009A4201D0032329E07B6893F83C30E92B0D
:1049E00009D07B6893F83C30EB2B1ED17B6893F8A1
:1049F0003E30902B19D17B683C3336331846FEF796
:104A000088F9034623F07F430A4A934201D10023E9
:104A10000CE07B683C3352331846FEF77AF90346C4
:104A2000054A934201D1002300E0022318460837CB
:104A3000BD4680BD464154004641543380B596B0D2
:104A400000AFF860B9601346FB71BB6800221A60C2
:104A5000F868FFF759FFF863FB6B002B01DA0B23B3
:104A60006AE2A34AFB6B52F82330BB63BB6B002B9B
:104A700001D10C2360E2B86BFEF733FA0346002B3A
:104A800001D10F2358E2BB68BA6B1A60FB7923F09F
:104A90000103FB71BB6B1B78002B1AD0BB6B5B78DF
:104AA0001846FEF725F8034687F8373097F8373071
:104AB00003F00103002B0CD1FB79002B07D097F8F2
:104AC000373003F00403002B01D00A2334E2002323
:104AD00032E2BB6B00221A70FB6BDAB2BB6B5A700E
:104AE000BB6B5B781846FEF71DF8034687F8373036
:104AF00097F8373003F00103002B01D003231BE2AA
:104B0000FB79002B07D097F8373003F00403002B14
:104B100001D00A2310E2BB6B5878BB6B0C331A46EA
:104B20000221FEF765F80346002B01D0012303E2C2
:104B3000BB6B9B89B3F5805F0DD8BB6B9B89B3F5CD
:104B4000007F08D3BB6B9B891A46BB6B9B89013BDB
:104B50001340002B01D00123EEE100233B65396DAA
:104B6000B86BFFF715FF034687F8573097F85730B3
:104B7000022B49D100233B641EE0BB6B03F13C02D6
:104B80003B6C1B0103F5DF7313443B633B6B043346
:104B90001B78002B06D03B6B08331846FEF7B9F89C
:104BA000024600E000223B6C9B0058333B4443F834
:104BB000442C3B6C01333B643B6C032BDDD900235D
:104BC0003B643B6C002B02D03B6C013B3B643B6C79
:104BD0009B0058333B4453F8443C3B653B6D002BF2
:104BE00005D0396DB86BFFF7D3FE034600E0032311
:104BF00087F8573097F85730012B05D93B6C0133B4
:104C00003B643B6C032BE2D997F85730042B01D15E
:104C1000012391E197F85730012B01D90D238BE146
:104C2000BB6B3C330B331846FEF75BF803461A4662
:104C3000BB6B9B899A4201D00D237DE1BB6B3C335A
:104C400016331846FEF74DF80346FB64FB6C002B49
:104C500006D1BB6B3C3324331846FEF75AF8F86490
:104C6000BB6BFA6C5A62BB6B93F84C20BB6B9A70AF
:104C7000BB6B9B78012B05D0BB6B9B78022B01D0C3
:104C80000D2359E1BB6B9B781A46FB6C02FB03F3C7
:104C9000FB64BB6B93F849301A46BB6B5A81BB6B04
:104CA0005B89002B08D0BB6B5B891A46BB6B5B89A9
:104CB000013B1340002B01D00D233DE1BB6B3C3386
:104CC00011331846FEF70DF803461A46BB6B1A81DE
:104CD000BB6B1B89BA6B9289520992B2B3FBF2F19A
:104CE00001FB02F29B1A9BB2002B03D00D2323E1A0
:104CF000F05C0020BB6B3C3313331846FDF7F1FF2B
:104D00000346BB64BB6C002B06D1BB6B3C3320332A
:104D10001846FDF7FEFFB864BB6B3C330E331846F4
:104D2000FDF7DFFF0346FB85FB8D002B01D10D2333
:104D300002E1FA8DFB6C1344BA6B1189BA6B92894C
:104D4000520992B2B1FBF2F292B21344BB62BA6C56
:104D5000BB6A9A4201D20D23EEE0BA6CBB6AD31A49
:104D6000BA6B5289B3FBF2F37B627B6A002B01D1F1
:104D70000D23E1E0032387F857307B6A4FF6F57285
:104D8000934202D8022387F857307B6A40F6F572C7
:104D9000934202D8012387F857307B6A9A1CBB6B79
:104DA0001A62BB6B3A6D9A62FA8D3B6D1A44BB6B0B
:104DB000DA623A6DBB6A1A44BB6B5A6397F8573094
:104DC000032B1ED1BB6B3C332A331846FDF789FFFA
:104DD0000346002B01D00D23AEE0BB6B1B89002BDB
:104DE00001D00D23A8E0BB6B3C332C331846FDF7F4
:104DF00090FF0246BB6B1A63BB6B1B6A9B007B6414
:104E00001FE0BB6B1B89002B01D10D2394E0BB6B12
:104E1000DA6AFB6C1A44BB6B1A6397F85730022BA3
:104E200003D1BB6B1B6A5B000AE0BB6B1A6A1346BB
:104E30005B0013445A08BB6B1B6A03F00103134465
:104E40007B64BB6B5A6ABB6B9B8919467B6C0B44BA
:104E5000013BB96B8989B3FBF1F39A4201D20D236F
:104E60006AE0BB6B4FF0FF32DA61BB6BDA69BB6B98
:104E70009A61BB6B80221A7197F85730032B49D186
:104E8000BB6B3C3330331846FDF72BFF0346012B39
:104E900040D13B6D01331946B86BFEF703FA034668
:104EA000002B37D1BB6B00221A71BB6B3C3303F56F
:104EB000FF731846FDF715FF03461A464AF65523B9
:104EC0009A4227D1BB6B3C331846FDF722FF0346BD
:104ED0001B4A93421ED1BB6B3C3303F5F273184659
:104EE000FDF717FF0346174A934213D1BB6B3C33C0
:104EF00003F5F4731846FDF70CFF0246BB6BDA614D
:104F0000BB6B3C3303F5F6731846FDF702FF024610
:104F1000BB6B9A61BB6B97F857201A700A4B1B88C2
:104F200001339AB2084B1A80074B1A88BB6BDA80A0
:104F3000B86BFEF74FF9002318465837BD4680BDC1
:104F40005252614172724161F45C002080B584B0BC
:104F500000AF786039600923FB737B68002B2ED08B
:104F60007B681B68002B2AD07B681B681B78002B92
:104F700025D07B689A887B681B68DB889A421ED1A3
:104F80007B681B681846FDF7ACFF0346002B14D066
:104F90007B681B685B781846FDF7AAFD034603F0A3
:104FA0000103002B02D10023FB7308E07B681B6820
:104FB00000211846FDF7ABFF01E00F23FB73FB7BDD
:104FC000002B02D17B681B6800E000233A68136065
:104FD000FB7B18461037BD4680BD000080B588B009
:104FE00000AFF860B9601346FB71BB683B6107F125
:104FF00010031846FFF788FCF861FB69002B01DA03
:105000000B2348E0264AFB6952F82330BB61BB6999
:10501000002B0FD0B869FEF7DDF8BB695B69184655
:1050200000F03DFE0346002B01D1022333E0BB69B3
:1050300000221A70FB68002B0FD0FB6800221A7048
:10504000FB69DAB2FB6814331946104600F00CFE17
:105050000346002B01D102231DE0FA681049FB69C9
:1050600041F82320FB68002B02D0FB79012B01D0F3
:10507000002310E007F10C0107F108030022184695
:10508000FFF7DCFC0346FB75FB68FA7D114618460A
:10509000FDF73DFFFB7D18462037BD4680BD00BFB4
:1050A000F05C002080B59AB000AFF860B96013469C
:1050B000FB71FB68002B01D10923D3E1FB7903F0DD
:1050C0003F03FB71FA7907F1100107F10803184655
:1050D000FFF7B4FC034687F8673097F86730002B7A
:1050E00040F0B0813B697B614FF4007000F003FE3B
:1050F000B865BB6D002B06D13B6911211846FDF741
:1051000006FF1123AEE13B69BA6D1A61BA6807F177
:10511000140311461846FFF781FB034687F86730F2
:1051200097F86730002B18D197F843305BB2002B0B
:1051300003DA062387F867300FE0FB79012B8CBF79
:1051400001230023DBB21A4607F114031146184667
:10515000FDF7F8FE034687F86730FB7903F01C0380
:10516000002B7FD097F86730002B17D097F8673067
:10517000042B0ED1FDF742FF0346002B06D007F1AA
:1051800014031846FFF79AF8034600E0122387F845
:105190006730FB7943F00803FB7110E0BB7E03F03E
:1051A0001103002B03D0072387F8673007E0FB7952
:1051B00003F00403002B02D0082387F8673097F828
:1051C0006730002B68D1FB7903F00803002B63D014
:1051D000FDF728FC78657B6B0E33796D1846FDF77B
:1051E000D6FD7B6B1633796D1846FDF7D0FD7B6BD2
:1051F0000B3320221A703B697A6B11461846FEF772
:10520000D6FD38653B69796B00221846FEF7EEFD46
:105210007B6B1C3300211846FDF7B9FD3B69012269
:10522000DA703B6D002B37D03B699B6B7B6507F1D8
:1052300014030022396D1846FEF7DEFA034687F89C
:10524000673097F86730002B26D13B69796D184697
:10525000FEF728F8034687F867303B693A6D013A54
:105260009A6119E097F86730002B15D1BB7E03F0E7
:105270001003002B03D0042387F867300CE0FB7980
:1052800003F00203002B07D0BB7E03F00103002BC9
:1052900002D0072387F8673097F86730002B26D1B4
:1052A000FB7903F00803002B03D0FB7943F04003A4
:1052B000FB713B699A6BFB685A627A6BFB689A6276
:1052C000FB79012B8CBF01230023DBB21A4607F1C7
:1052D000140311461846FDF7B3FE0246FB681A6137
:1052E000FB681B69002B02D1022387F8673097F80F
:1052F0006730002B40F0A3803B697A6B114618465B
:10530000FEF755FD0246FB689A607B6B1C3318461E
:10531000FDF7FFFC0246FB68DA60FB680022DA62F8
:105320003A69FB681A603B69DA88FB689A80FB6817
:10533000FA791A75FB6800225A75FB6800221A6216
:10534000FB6800229A61FB6830334FF480520021E1
:105350001846FDF769FDFB7903F02003002B6ED0A2
:10536000FB68DB68002B6AD0FB68DA68FB689A612F
:105370003B695B891A463B699B8902FB03F3FB642B
:10538000FB689B683B66FB68DB68FB6516E0FB68B7
:10539000396E1846FEF743F838663B6E012B02D88B
:1053A000022387F867303B6EB3F1FF3F02D1012340
:1053B00087F86730FA6DFB6CD31AFB6597F8673096
:1053C000002B03D1FA6DFB6C9A42E0D8FB683A6E71
:1053D000DA6197F86730002B31D13B699B891A4617
:1053E000FB6DB3FBF2F101FB02F29B1A002B26D0FE
:1053F0003B69396E1846FDF7F3FFB864BB6C002BB0
:1054000003D1022387F8673019E03B699B891A466C
:10541000FB6DB3FBF2F2BB6C1A44FB681A623B698A
:105420005878FB6803F13001FB681A6A0123FDF725
:105430009FFB0346002B02D0012387F86730B86D2D
:1054400000F065FC97F86730002B02D0FB68002263
:105450001A603B6997F8672011461846FDF757FD1B
:1054600097F8673018466837BD4680BD80B58CB068
:1054700000AFF860B9607A603B60BB68FB613B6875
:1054800000221A60FB6807F1100211461846FFF768
:105490005DFD034687F82F3097F82F30002B07D19A
:1054A000FB685B7D87F82F3097F82F30002B09D0F1
:1054B0003B6997F82F2011461846FDF728FD97F80D
:1054C0002F3092E1FB681B7D03F00203002B06D115
:1054D0003B6907211846FDF71AFD072385E1FB68A4
:1054E0009A697B681A44FB689B699A4280F06A81DA
:1054F000FB689B69DB437B6064E1FB689B693A69FD
:105500009289B3FBF2F101FB02F29B1A002B40F0EF
:105510000F81FB689B693A699289B3FBF2F33A69A0
:105520005289013A1340BB61BB69002B4DD1FB6826
:105530009B69002B0CD1FB689B68BB62BB6A002B8C
:105540001AD1FB6800211846FEF7BBF9B86213E0D8
:10555000FB68DB6A002B07D0FB689B691946F8687B
:10556000FEF747FAB86207E0FA68FB68DB6919469C
:105570001046FEF7A6F9B862BB6A002B00F027813F
:10558000BB6A012B09D1FB6802225A753B690221D3
:105590001846FDF7BCFC022327E1BB6AB3F1FF3FCD
:1055A00009D1FB6801225A753B6901211846FDF7B4
:1055B000AEFC012319E1FB68BA6ADA61FB689B68FB
:1055C000002B02D1FB68BA6A9A60FB681B7D5BB254
:1055D000002B1DDA3B695878FB6803F13001FB684A
:1055E0001A6A0123FDF7E4FA0346002B09D0FB6891
:1055F00001225A753B6901211846FDF788FC0123F9
:10560000F3E0FB681B7D03F07F03DAB2FB681A75D9
:105610003A69FB68DB6919461046FDF7E1FE7861DF
:105620007B69002B09D1FB6802225A753B69022174
:105630001846FDF76CFC0223D7E07A69BB69134476
:105640007B613B699B891A467B68B3FBF2F33B6243
:105650003B6A002B48D0BA693B6A13443A695289C5
:10566000934205D93B695B891A46BB69D31A3B62F1
:105670003B6958783B6A7A69F969FDF799FA0346FC
:10568000002B09D0FB6801225A753B69012118469D
:10569000FDF73DFC0123A8E0FB681A6A7B69D31A79
:1056A0003A6A9A4218D9FB6803F13000FB681A6A1B
:1056B0007B69D31A3A69928902FB03F3FA69D1181C
:1056C0003B699B891A46FDF78EFBFB681B7D03F047
:1056D0007F03DAB2FB681A753B699B891A463B6AFD
:1056E00002FB03F37B6250E0FB681B6A7A699A4213
:1056F0001BD0FB689A69FB68DB689A4215D23B694C
:105700005878FB6803F1300101237A69FDF730FA1C
:105710000346002B09D0FB6801225A753B69012121
:105720001846FDF7F4FB01235FE0FB687A691A6213
:105730003B699B891846FB689B693A699289B3FB70
:10574000F2F101FB02F29B1AC31A7B627A6A7B6850
:105750009A4201D97B687B62FB6803F13001FB68E8
:105760009B693A699289B3FBF2F000FB02F29B1A43
:105770000B447A6AF9691846FDF735FBFB681B7D17
:1057800063F07F03DAB2FB681A75FA697B6A134427
:10579000FB61FB689A697B6A1A44FB689A61FB6843
:1057A000DA68FB689B699A4238BF1A46FB68DA6080
:1057B0003B681A687B6A1A443B681A607A687B6A9D
:1057C000D31A7B607B68002B7FF497AE00E000BFAC
:1057D000FB681B7D43F04003DAB2FB681A753B6936
:1057E00000211846FDF793FB002318463037BD46CD
:1057F00080BD80B586B000AF78607B6807F1080295
:1058000011461846FFF7A2FB0346FB75FB7D002BF4
:105810006DD17B681B7D03F04003002B67D07B6854
:105820001B7D5BB2002B1ADABB6858787B6803F1EA
:1058300030017B681A6A0123FDF7BAF90346002B91
:1058400006D0BB6801211846FDF761FB012355E036
:105850007B681B7D03F07F03DAB27B681A75FDF766
:10586000E1F83861BA687B685B6A19461046FDF753
:1058700019FD0346FB75FB7D002B38D17B689B6AC5
:10588000FB60FB680B331A78FB680B3342F0200295
:10589000D2B21A707B6818687B689B681A46F968F0
:1058A000FEF7A4FAFB6803F11C027B68DB6819466B
:1058B0001046FDF76CFAFB68163339691846FDF798
:1058C00066FAFB68123300211846FDF745FABB68FB
:1058D0000122DA70BB681846FDF712FD0346FB751E
:1058E0007B681B7D23F04003DAB27B681A75BB68C6
:1058F000FA7D11461846FDF70AFBFB7D184618375E
:10590000BD4680BD80B584B000AF78607868FFF791
:1059100070FF0346FB73FB7B002B1DD17B6807F1F7
:10592000080211461846FFF711FB0346FB73FB7B89
:10593000002B11D17B681B691846FDF70FFC03464D
:10594000FB73FB7B002B02D17B6800221A60BB68D3
:1059500000211846FDF7DBFAFB7B18461037BD46E1
:1059600080BD80B592B000AFF860B9607A6007F191
:10597000280107F10C0300221846FFF75FF80346E1
:1059800087F8473097F84730002B40F09980BA6A83
:105990007B681A60BB6ADA69BB6A1B6A023B9A427F
:1059A00004D8BB6ADA69BB681A6089E000233B64EB
:1059B000BB6A1B78012B28D10223FB63BB6A7B6186
:1059C00007F11403F96B1846FDF729FDF862FB6A2D
:1059D000B3F1FF3F03D1012387F8473063E0FB6A4F
:1059E000012B03D1022387F847305CE0FB6A002BD0
:1059F00002D13B6C01333B64FB6B0133FB63BB6A3D
:105A00001B6AFA6B9A42DBD34DE0BB6A1B6AFB63ED
:105A1000BB6ADB6ABB6300237B6300233B637B6B56
:105A2000002B13D1B86ABB6B5A1CBA631946FDF739
:105A300039FC034687F8473097F84730002B31D1BF
:105A4000BB6A3C333B63BB6A9B897B63BB6A1B7845
:105A5000022B0FD1386BFDF744F90346002B02D11E
:105A60003B6C01333B643B6B02333B637B6B023B20
:105A70007B6310E0386BFDF74CF9034623F070436D
:105A8000002B02D13B6C01333B643B6B04333B6323
:105A90007B6B043B7B63FB6B013BFB63FB6B002B72
:105AA000BDD100E000BFBB683A6C1A60BB6A3A6CBB
:105AB000DA61BB6A1A79BB6A42F00102D2B21A718A
:105AC000BB6A97F8472011461846FDF720FA97F869
:105AD000473018464837BD4680BD000080B485B0C9
